:020000040800F2
:100000008804002001010008090100080B01000814
:100010000D0100080F010008110100080000000098
:1000200000000000000000000000000013010008B4
:100030001501000800000000170100081901000860
:100040001B0100081B0100081B0100081B01000820
:100050001B0100081B0100081B0100081B01000810
:100060001B0100081B0100081B0100081B01000800
:100070001B0100081B0100081B0100081B010008F0
:100080001B0100081B0100081B0100081B010008E0
:100090001B0100081B0100081B0100081B010008D0
:1000A0001B0100081B0100081B0100081B010008C0
:1000B0001B0100081B0100081B0100081B010008B0
:1000C0001B0100081B0100081B0100081B010008A0
:1000D0001B010008490500081B0100081B0100085E
:1000E0001B0100081B0100081B010008DFF80CD0F1
:1000F00000F028F8004800473D0800088804002068
:100100000648804706480047FEE7FEE7FEE7FEE7B1
:10011000FEE7FEE7FEE7FEE7FEE7FEE7E90400088C
:10012000ED00000830B505460020034600E05B1CEA
:10013000934205D2EC5CC85C201A01D1002CF6D1A8
:1001400030BD0000064C074D06E0E06840F00103BA
:1001500094E8070098471034AC42F6D3FFF7CAFF83
:10016000F80A0008180B00082DE9F04102460025A6
:100170000026002000230024002791F803C00CF083
:100180000F0591F803C00CF0100CBCF1000F03D068
:1001900091F802C04CEA050591F800C0BCF1000FCF
:1001A00031D0146800202BE04FF0010C0CFA00F362
:1001B000B1F800C00CEA03069E4220D183004FF044
:1001C0000F0C0CFA03F7BC4305FA03FC4CEA0404D9
:1001D00091F803C0BCF1280F06D14FF0010C0CFAC6
:1001E00000FCC2F814C00AE091F803C0BCF1480F4B
:1001F00005D14FF0010C0CFA00FCC2F810C0401CF5
:100200000828D1D31460B1F800C0BCF1FF0F34DD71
:10021000546800202EE000F1080C4FF0010808FAA5
:100220000CF3B1F800C00CEA03069E4221D1830012
:100230004FF00F0C0CFA03F7BC4305FA03FC4CEA31
:10024000040491F803C0BCF1280F05D100F1080C9B
:1002500008FA0CF8C2F8148091F803C0BCF1480FFA
:1002600007D100F1080C4FF0010808FA0CF8C2F8A9
:100270001080401C0828CED35460BDE8F081416155
:10028000704701617047000070B5002100230F2204
:10029000C47804B3154C246804F4E064C4F5E06445
:1002A000210AC1F10403CA40447804FA03F18478B6
:1002B0001440214309010E4C0678A155047804F03E
:1002C0001F050124AC4005786D11AD0005F1E02556
:1002D000C5F8004109E0047804F01F050124AC4092
:1002E000044D0678761145F8264070BD0CED00E00F
:1002F00000E400E080E100E002490143024A1160AD
:10030000704700000000FA050CED00E029B1064A34
:1003100092690243044B9A6104E0034A9269824362
:10032000014B9A61704700000010024030B5002177
:100330000022002400232D4D6D6805F00C0121B131
:10034000042905D0082923D105E0294D056022E0C4
:10035000274D05601FE0254D6D6805F47012234D93
:100360006D6805F48034022505EB92421CB9214DDD
:10037000554305600BE01D4D6D6805F400351DB15A
:100380001C4D5543056002E0194D5543056002E0E0
:10039000174D056000BF00BF144D6D6805F0F001FA
:1003A0000909154D6B5C0568DD4045600F4D6D68B2
:1003B00005F4E061090A104D6B5C4568DD4085601D
:1003C0000A4D6D6805F46051C90A0B4D6B5C4568B8
:1003D000DD40C560054D6D6805F44041890B074D52
:1003E0006B5CC568B5FBF3F5056130BD00100240DC
:1003F00000127A0000093D000800002018000020CB
:1004000010B500F001F810BD0CB50020019000906F
:100410003348006840F480303149086000BF3048FC
:10042000006800F4003000900198401C0190009892
:1004300018B90198B0F5A06FF1D12948006800F40F
:10044000003010B10120009001E0002000900098E1
:10045000012843D12348006840F01000214908607A
:100460000846006820F0030008600846006840F075
:10047000020008601A484068194948600846406808
:1004800048600846406840F480604860084640681C
:1004900020F47C1048600846406840F4E81048604A
:1004A0000846006840F08070086000BF0C48006893
:1004B00000F000700028F9D00948406820F00300DF
:1004C000074948600846406840F00200486000BFA5
:1004D0000348406800F00C000828F9D10CBD00006A
:1004E000001002400020024010B51348006840F0A0
:1004F00001001149086008464068104908400E494B
:100500004860084600680E4908400B4908600846E4
:10051000006820F4802008600846406820F4FE004F
:1005200048604FF41F008860FFF76AFF4FF00060DB
:100530000449086010BD0000001002400000FFF8F0
:10054000FFFFF6FE08ED00E010B520210E4800F098
:100550002FF8C0B10C4800F0C9F80C490C4A1268D9
:10056000885408460A490968405C0A2806D10020D8
:100570000749086001200749086004E00448006852
:10058000401C0349086010BD0038014020000020D5
:10059000000000200400002021B1828942F40052B2
:1005A000828104E082894DF6FF731A408281704790
:1005B00002460020B1F5007F00D100BF13880B4038
:1005C0000BB1012000E000207047F0B50346002485
:1005D00000260025002040F66A17B94200D100BF6E
:1005E0001846C1F3421401F01F06012707FA06F569
:1005F000012C01D10C3004E0022C01D1103000E0BC
:1006000014301AB107682F43076002E00768AF4350
:100610000760F0BD2DE9F04786B005460E46002480
:10062000A24600BFA1460027B08900B100BF2F46F7
:100630002C8A4CF6FF700440F08804432C82AC896D
:100640004EF6F3100440B08831890843718908439D
:100650000443AC81AC8A4FF6FF400440B0890443A8
:10066000AC8201A8FFF762FE1F48874202D1DDF885
:1006700010A001E0DDF80CA0A88900F4004040B112
:100680000AEBCA0000EB0A1031684900B0FBF1F830
:1006900007E00AEBCA0000EB0A1031688900B0FBE2
:1006A000F1F86420B8FBF0F004012009642101FB9B
:1006B0001089A88900F4004040B1322000EBC90045
:1006C000B0FBF1F000F00700044308E0322000EB3B
:1006D00009106421B0FBF1F000F00F0004432C81FD
:1006E00006B0BDE8F0870000003801400146888868
:1006F000C0F308007047C1F3080282807047000011
:10070000014A024900F013B8B10700081C0000209C
:1007100002E008C8121F08C1002AFAD170477047CA
:10072000002001E001C1121F002AFBD170472DE912
:10073000F04116460F460446002503E03946B0470F
:10074000641C6D1C20780028F8D12846BDE8F08193
:1007500010B520210A48FFF794FD4FF400710848B6
:10076000FFF78FFD4FF480710548FFF788FD80216A
:100770000348FFF786FD40210148FFF780FD10BDCB
:10078000000C014008B501210820FFF7BFFD4FF420
:100790007870ADF8000010208DF8030003208DF86C
:1007A000020069460148FFF7DFFC08BD000C01406C
:1007B00070B504460D46E1B20548FFF79CFF00BF47
:1007C00080210348FFF7F4FE0028F9D0204670BDD1
:1007D0000038014010B520210A48FFF752FD4FF4C0
:1007E00080710848FFF74DFD4FF400710548FFF791
:1007F00046FD40210348FFF744FD80210148FFF7F3
:100800003EFD10BD000C014010B520210A48FFF745
:1008100038FD4FF400710848FFF731FD4FF4807147
:100820000548FFF72EFD80210348FFF728FD4021F2
:100830000148FFF724FD10BD000C01404FF4A060FB
:10084000FFF75AFDFFF79EFF00F0E2F82AA000F044
:1008500037F92DA0FFF754FF4DE02F48006801281D
:1008600049D104222DA12F48FFF75CFC28B9FFF7DE
:10087000CBFF2DA0FFF744FF3AE002222CA129482C
:10088000FFF750FC28B9FFF7A5FF2AA0FFF738FFB4
:100890002EE0052229A12348FFF744FC28B900F0E7
:1008A00069F828A0FFF72CFF22E0042227A11D48A9
:1008B000FFF738FC28B9FFF74BFF26A0FFF720FF12
:1008C00016E0042225A11748FFF72CFC28B900F0F8
:1008D0006BF824A0FFF714FF0AE0042223A11148BB
:1008E000FFF720FC20B900F079F81EA0FFF708FF01
:1008F000002009490860B0E768656C6C6F776F721B
:100900006C6420310D0A000068656C6C6F776F7243
:100910006C6420320D0A0000040000206C656674CF
:100920000000000020000020D7F3D7AA0D0A000025
:10093000676F0000D6B1D7DF0D0A000072696768E3
:1009400074000000D3D2D7AA0D0A00006261636B65
:1009500000000000BAF3CDCB0D0A00007370616E89
:1009600000000000D0FDD7AA0D0A000073746F705C
:100970000000000010B520210A48FFF782FC4FF468
:1009800000710848FFF77BFC4FF480710548FFF7C2
:1009900076FC80210348FFF772FC40210148FFF7F5
:1009A00070FC10BD000C014010B520210A48FFF773
:1009B00068FC4FF400710848FFF761FC4FF4807148
:1009C0000548FFF75EFC80210348FFF75AFC4021F1
:1009D0000148FFF754FC10BD000C014010B5202168
:1009E0000A48FFF74EFC4FF480710848FFF749FCB6
:1009F0004FF400710548FFF744FC40210348FFF71E
:100A000040FC80210148FFF73CFC10BD000C014078
:100A100000B587B001218803FFF778FC012104208D
:100A2000FFF774FC4FF40070ADF8180003208DF848
:100A30001A0018208DF81B0006A91F48FFF794FB29
:100A40004FF48060ADF8180003208DF81A000420E0
:100A50008DF81B0006A91848FFF786FB4FF4E1301C
:100A600002900020ADF80C00ADF80E00ADF81000BB
:100A70000C20ADF812000020ADF8140002A90F48B8
:100A8000FFF7C8FD25208DF8040002208DF8050031
:100A90008DF8060001208DF8070001A8FFF7F4FB90
:100AA000012240F225510548FFF78FFD012103483F
:100AB000FFF772FD07B000BD00080140003801409B
:100AC00010B504460BE021780A48FFF714FE641CB9
:100AD00000BF80210748FFF76BFD0028F9D0207880
:100AE0000028F0D100BF40210248FFF761FD002837
:100AF000F9D010BD00380140180B0008000000209C
:100B00002000000010070008380B0008200000201B
:100B1000680400002007000800000000000000003A
:100B20000000000001020304010203040607080993
:080B30000204060800000000A9
:04000005080000ED02
:00000001FF
